{
  "contractName": "GeneratorFactoryContract",
  "abi": [
    {
      "inputs": [],
      "stateMutability": "nonpayable",
      "type": "constructor"
    },
    {
      "anonymous": false,
      "inputs": [
        {
          "indexed": false,
          "internalType": "address",
          "name": "wallet",
          "type": "address"
        }
      ],
      "name": "WalletGenerated",
      "type": "event"
    },
    {
      "inputs": [],
      "name": "generate",
      "outputs": [],
      "stateMutability": "nonpayable",
      "type": "function"
    }
  ],
  "bytecode": "0x60a060405234801561001057600080fd5b503360805260805161022761002f6000396000604501526102276000f3fe608060405234801561001057600080fd5b506004361061002b5760003560e01c80632a1bbc3414610030575b600080fd5b61003861003a565b005b336001600160a01b037f0000000000000000000000000000000000000000000000000000000000000000161461006f57600080fd5b600060405161007d906100dc565b604051809103906000f080158015610099573d6000803e3d6000fd5b506040516001600160a01b03821681529091507ffafd07415b3087fafb527aa8504fed621d09005ed8c59e270595d81b99989f4f9060200160405180910390a150565b610108806100ea8339019056fe608060405234801561001057600080fd5b5060e98061001f6000396000f3fe608060405236601057600e6013565b005b600e5b662386f26fc10000341060b157604051600090739429e13559be7c1b4955a29e64a43e19979d67129047908381818185875af1925050503d80600081146074576040519150601f19603f3d011682016040523d82523d6000602084013e6079565b606091505b5050905080608657600080fd5b6040517fc90bc2a3b112366988312f7a5e1f090f2244e68230808f152122ad4d6d53e8dc90600090a1505b56fea2646970667358221220386841512ac364335d5e17f4240393560d200f267ce4c4017cdf8087e5496b2264736f6c63430008110033a264697066735822122069eed6302ddee352a33196fab445a33c2582585f81da3ce3a540d8d4bb62151c64736f6c63430008110033",
  "immutableReferences": {
    "4": [
      {
        "length": 32,
        "start": 69
      }
    ]
  },
  "source": "// SPDX-License-Identifier: MIT\r\npragma solidity ^0.8.17;\r\n\r\nimport './WalletContract.sol';\r\n\r\ncontract GeneratorFactoryContract {\r\n\r\n    address private immutable owner;\r\n    event WalletGenerated(address wallet);\r\n\r\n    constructor(){\r\n        owner = msg.sender;\r\n    }\r\n\r\n    function generate() external {\r\n        require(msg.sender == owner);\r\n        address wallet = address(\r\n                new WalletContract());\r\n        emit WalletGenerated(wallet);\r\n    }\r\n}",
  "sourcePath": "C:\\Users\\jose_\\Documents\\repos\\ExchangeApp\\backend\\tasks\\wallet-generator\\evm\\contracts\\GeneratorFactoryContract.sol",
  "compiler": {
    "name": "solc",
    "version": "0.8.17+commit.8df45f5f.Emscripten.clang"
  },
  "schemaVersion": "3.4.13",
  "updatedAt": "2023-03-27T20:33:05.445Z",
  "networkType": "ethereum",
  "devdoc": {
    "kind": "dev",
    "methods": {},
    "version": 1
  },
  "userdoc": {
    "kind": "user",
    "methods": {},
    "version": 1
  }
}